:100000000C945C000C947B000C947B000C947B00A3
:100010000C947B000C947B000C947B000C947B0074
:100020000C947B000C947B000C947B000C947B0064
:100030000C947B000C94F4000C947B000C947B00DB
:100040000C947B000C947B000C947B000C947B0044
:100050000C947B000C947B000C947B000C947B0034
:100060000C947B000C947B000C947B000C947B0024
:100070000C947B000C947B000C947B000C947B0014
:100080000C947B000C947B000C947B009402B302D4
:10009000D402160358039A03F50237037903A10328
:1000A0008502C103CA03D303E503F7030904DC0394
:1000B000EE0300041204B80311241FBECFEFD0E4F6
:1000C000DEBFCDBF11E0A0E0B1E0E8EBFCE000E076
:1000D0000BBF02C007900D92A033B107D9F721E002
:1000E000A0E3B1E001C01D92AF33B207E1F70E9477
:1000F00020040C945A060C940000CF93DF9300D098
:100100001F92CDB7DEB789837B836A8389818A306A
:1001100031F48A819B81BC018DE00E947D0080ECDE
:1001200090E0FC018081882F90E080729927892BD4
:10013000B1F386EC90E02981FC01208380E090E01F
:100140000F900F900F90DF91CF910895CF93DF9391
:10015000CDB7DEB781E890E02BE0FC01208388E892
:1001600090E02BE730E0FC01318320838FE690E0C4
:1001700022E0FC01208384E890E0FC0111821082DF
:1001800080910E0190910F01A0911001B091110189
:100190008093310190933201A0933301B0933401E5
:1001A0008FE590E02FE530E0F90120812068FC0127
:1001B00020830000DF91CF910895CF93DF93CDB7D7
:1001C000DEB781E890E0FC0110820000DF91CF9162
:1001D0000895CF93DF93CDB7DEB781E080933001F0
:1001E0000000DF91CF9108951F920F9200905F0061
:1001F0000F92112400905B000F922F933F934F9327
:100200005F936F937F938F939F93AF93BF93EF937E
:10021000FF93CF93DF93CDB7DEB7809131019091FB
:100220003201A0913301B09134010197A109B109C4
:100230008093310190933201A0933301B093340144
:100240008091310190913201A0913301B09134013C
:10025000892B8A2B8B2B91F40E94E90080910E014F
:1002600090910F01A0911001B09111018093310183
:1002700090933201A0933301B09334010000DF91D9
:10028000CF91FF91EF91BF91AF919F918F917F910E
:100290006F915F914F913F912F910F9000925B0072
:1002A0000F9000925F000F901F901895CF93DF93EF
:1002B00000D000D0CDB7DEB769837A838B839C836F
:1002C00089819A81AB81BC8180930E0190930F014B
:1002D000A0931001B093110180910E0190910F0134
:1002E000A0911001B09111018093310190933201DE
:1002F000A0933301B093340100000F900F900F9042
:100300000F90DF91CF9108950F931F93CF93DF93B9
:1003100000D000D0CDB7DEB769837A838B839C830E
:100320008091390190913A01A0913B01B0913C013B
:100330009C01AD0169817A818B819C810E94C604F8
:10034000882309F480C020E030E0A90169817A8126
:100350008B819C810E94C604882351F481E990E03E
:1003600021E930E0F90120812870FC01208309C0D7
:1003700081E990E021E930E0F90120812360FC016E
:10038000208328E539E344E75FE369817A818B8143
:100390009C810E94C604882344F488E990E02FEFF2
:1003A0003FEFFC01318320833DC020E034E244EF85
:1003B00056E469817A818B819C810E94E805181638
:1003C00034F488E990E0FC01118210822BC008E926
:1003D00010E020E030E040E053E469817A818B81D5
:1003E0009C810E94ED05DC01CB019C01AD0160E028
:1003F00074E284EF9AE40E94CB04DC01CB0120E09C
:1004000030E040E85FE3BC01CD010E945904DC010B
:10041000CB01BC01CD010E943D05DC01CB01F801FF
:100420009183808384E990E0FC01118210828981AC
:100430009A81AB81BC818093390190933A01A0935A
:100440003B01B0933C0100000F900F900F900F9074
:10045000DF91CF911F910F910895CF93DF93CDB787
:10046000DEB780E990E020E4FC01208381E990E0A0
:100470002BE0FC01208360E070E0CB010E9484014E
:100480000000DF91CF910895CF93DF93CDB7DEB712
:1004900080E990E0FC01108281E990E0FC0110828B
:1004A0000000DF91CF910895CF93DF93CDB7DEB7F2
:1004B0006D970FB6F894DEBF0FBECDBF8CE1E4E1BF
:1004C000F1E0DE01129601900D928A95E1F7198212
:1004D00080E290E0FC018081809587708983809123
:1004E0003D0190913E01CC01A0E0B0E040E050E041
:1004F0002AE030E0841B950B2817390708F41AC14D
:100500008A5B9F4FFC010C9450048981813029F44F
:1005100010923E0110923D0115C18AE090E0909347
:100520003E0180933D010EC18091370190913801C9
:100530000196909338018093370180913701909113
:100540003801029759F481E090E090933E01809346
:100550003D011092380110923701F4C010923E0113
:1005600010923D01EFC080913701909138010196C2
:100570009093380180933701809137019091380131
:10058000029759F482E090E090933E0180933D0100
:100590001092380110923701D5C081E090E090931D
:1005A0003E0180933D01CEC080913701909138018A
:1005B0000196909338018093370180913701909193
:1005C0003801029759F486E090E090933E018093C1
:1005D0003D011092380110923701B4C082E090E0E2
:1005E00090933E0180933D01ADC080913701909181
:1005F000380101969093380180933701809137013B
:1006000090913801019759F483E090E090933E0176
:1006100080933D01109238011092370193C086E01B
:1006200090E090933E0180933D018CC08091370112
:100630009091380101969093380180933701809111
:10064000370190913801029759F487E090E0909338
:100650003E0180933D01109238011092370172C023
:1006600083E090E090933E0180933D016BC08091C8
:1006700037019091380101969093380180933701AA
:100680008091370190913801019759F484E090E00E
:1006900090933E0180933D011092380110923701F2
:1006A00051C087E090E090933E0180933D014AC0A5
:1006B0008091370190913801019690933801809391
:1006C00037018091370190913801029759F488E001
:1006D00090E090933E0180933D011092380110927A
:1006E000370130C084E090E090933E0180933D015B
:1006F00029C080913701909138010196909338017B
:10070000809337018091370190913801019759F416
:1007100085E090E090933E0180933D011092380176
:10072000109237010FC085E090E090933E018093D6
:100730003D0108C08AE090E090933E0180933D0126
:1007400001C0000080913D0190913E01CC01A0E0EC
:10075000B0E040E050E02AE030E0841B950B281721
:10076000390708F462C08F5A9F4FFC010C94500463
:100770008A819B81AC81BD81BC01CD010E94840135
:1007800055C08E819F81A885B985BC01CD010E948D
:1007900084014CC08A859B85AC85BD85BC01CD019B
:1007A0000E94840143C08E859F85A889B989BC01B8
:1007B000CD010E9484013AC08A819B81AC81BD81B8
:1007C000BC01CD010E94840131C08A899B89AC891A
:1007D000BD89BC01CD010E94840128C08A819B8112
:1007E000AC81BD81BC01CD010E9484011FC08E89F6
:1007F0009F89A88DB98DBC01CD010E94840116C0CE
:100800008A819B81AC81BD81BC01CD010E948401A4
:100810000DC08E8D9F8DA8A1B9A1BC01CD010E94F4
:10082000840104C00E94440201C0000000006D96D3
:100830000FB6F894DEBF0FBECDBFDF91CF91089504
:10084000CF93DF93CDB7DEB784E290E02FEFFC01CA
:10085000208385E290E0FC01108281E290E0FC01BF
:10086000108282E290E02FEFFC01208364E670E0CA
:1008700080E090E00E9456010E94A6000E942D0296
:100880008AE090E090933E0180933D010E945402E3
:1008900002C010923001809130018823D1F3F6CF4D
:1008A000EE0FFF1F0024001C0BBE0790F691E02DF9
:1008B00009945058BB27AA270E9471040C94AE05D6
:1008C0000E94A00538F00E94A70520F039F49F3F50
:1008D00019F426F40C949D050EF4E095E7FB0C94B6
:1008E0009705E92F0E94BF0558F3BA1762077307EF
:1008F0008407950720F079F4A6F50C94E1050EF431
:10090000E0950B2EBA2FA02D0B01B90190010C011F
:10091000CA01A0011124FF27591B99F0593F50F437
:10092000503E68F11A16F040A22F232F342F44278F
:10093000585FF3CF469537952795A795F040539587
:10094000C9F77EF41F16BA0B620B730B840BBAF057
:100950009150A1F0FF0FBB1F661F771F881FC2F7C2
:100960000EC0BA0F621F731F841F48F487957795D6
:100970006795B795F7959E3F08F0B0CF9395880F90
:1009800008F09927EE0F9795879508950E947305B3
:1009900008F481E008950E94DF040C94AE050E94E3
:1009A000A70558F00E94A00540F029F45F3F29F008
:1009B0000C94970551110C94E2050C949D050E942E
:1009C000BF0568F39923B1F3552391F3951B550B9C
:1009D000BB27AA2762177307840738F09F5F5F4F12
:1009E000220F331F441FAA1FA9F335D00E2E3AF051
:1009F000E0E832D091505040E695001CCAF72BD069
:100A0000FE2F29D0660F771F881FBB1F26173707B9
:100A10004807AB07B0E809F0BB0B802DBF01FF27EB
:100A200093585F4F3AF09E3F510578F00C9497052C
:100A30000C94E2055F3FE4F3983ED4F386957795F6
:100A40006795B795F7959F5FC9F7880F911D9695A4
:100A5000879597F90895E1E0660F771F881FBB1F00
:100A6000621773078407BA0720F0621B730B840BAD
:100A7000BA0BEE1F88F7E09508950E94440568942C
:100A8000B1110C94E20508950E94C70588F09F57A4
:100A900098F0B92F9927B751B0F0E1F0660F771FA2
:100AA000881F991F1AF0BA95C9F714C0B13091F098
:100AB0000E94E105B1E008950C94E105672F782FBD
:100AC0008827B85F39F0B93FCCF38695779567955D
:100AD000B395D9F73EF490958095709561957F4FC9
:100AE0008F4F9F4F0895990F0008550FAA0BE0E80C
:100AF000FEEF16161706E807F907C0F012161306E0
:100B0000E407F50798F0621B730B840B950B39F41F
:100B10000A2661F0232B242B252B21F408950A2685
:100B200009F4A140A6958FEF811D811D089597F9C5
:100B30009F6780E870E060E008959FEF80EC089583
:100B400000240A94161617061806090608950024AC
:100B50000A9412161306140605060895092E039426
:100B6000000C11F4882352F0BB0F40F4BF2B11F49A
:100B700060FF04C06F5F7F4F8F4F9F4F089557FDF9
:100B80009058440F551F59F05F3F71F04795880FFB
:100B900097FB991F61F09F3F79F087950895121692
:100BA00013061406551FF2CF4695F1DF08C016163E
:100BB00017061806991FF1CF8695710561050894EF
:100BC0000895E894BB2766277727CB0197F9089506
:100BD0000E94730508F48FEF08950E9400060C949C
:100BE000AE050E94A00538F00E94A70520F09523CD
:100BF00011F00C9497050C949D0511240C94E205BA
:100C00000E94BF0570F3959FC1F3950F50E0551FEB
:100C1000629FF001729FBB27F00DB11D639FAA2751
:100C2000F00DB11DAA1F649F6627B00DA11D661FA0
:100C3000829F2227B00DA11D621F739FB00DA11DC1
:100C4000621F839FA00D611D221F749F3327A00D7B
:100C5000611D231F849F600D211D822F762F6A2F17
:100C600011249F5750409AF0F1F088234AF0EE0F7C
:100C7000FF1FBB1F661F771F881F91505040A9F7A9
:100C80009E3F510580F00C9497050C94E2055F3F60
:100C9000E4F3983ED4F3869577956795B795F795E5
:100CA000E7959F5FC1F7FE2B880F911D969587955D
:080CB00097F90895F894FFCFB5
:100CB80000000002000000007D00000000000100AC
:100CC80000000100000000000000C4431FD51244CA
:100CD800A4F0F643A4F0F6430000DC430000C4434C
:00000001FF
